:02000000182ABC
:10000800FF00030E8301CE000A08CD008A017008A4
:10001800A0000408A1009E217008BF007008D0004D
:1000280083213F08D000A921EF212008F0002108F2
:1000380084004D088A004E0E8300FF0E7F0E0900D3
:100048008316031398182A280000242883125508B9
:040058009900080003
:10005C00831203137008F100F0010830FC007108E2
:10006C00F40C03183D28FC0B3628F1010034031066
:10007C004228F40C0318F107F10CF00CFC0B3F2890
:02008C0008006A
:0E008E00831203133E088A003D08820008001A
:10009C00831203135508F2005708F0005808F100BA
:1000AC000130D702031CD8037008710403196428AB
:1000BC007208840056088000F20A52285508F00095
:0200CC0008002A
:1000CE00831603139C1C6D280000672883125508A5
:1000DE0083169B008312560883169A009C131C15D8
:1000EE000B08F0008B1355309D00AA309D009C1418
:0E00FE00F01B83288B1384288B171C1108001D
:10010C00831203135508313A031D8F280130F00078
:10011C0095285508303A031D9528F00195280800BC
:10012C008312031323189C2806129D280616080018
:10013C00831203132218A4288612A52886160800F9
:10014C008316031398169030831298008316861426
:10015C00061183128C1EB5281A08F000AF2808006F
:0E016C00831203133E088A003D08820008003B
:10017A00831203135108F2005308F0005408F100E7
:10018A000130D302031CD403700871040319D82860
:10019A007208840000085206031DD6287208F0006F
:0A01AA00D928F20AC128F00108006C
:1001B400831203134F0883169B009C131C141A0804
:0401C400F00008003F
:1001C80083120313D3015308013EF000F101031811
:1001D800F10A700851078400000852060319F6282E
:0A01E800D30AE7285308F0000800CE
:1001F20083120313A7010230270203186B29A501FA
:1002020051082502031869292708283E840000089E
:10021200F0002508700784000008F2002508013E5E
:10022200F000F1010318F10A700852078400720805
:100232000006031D6729A60A26085106031D672921
:10024200A60102305107F000F1010318F10A70080B
:10025200520784000008F0007008C1007008D50041
:1002620086207008C1002708D5007008D6006720D4
:100272000330F00083122708F4002E2070082B3E72
:1002820084000008F000840A0008F100840A0008D3
:10029200F200840A00087208840041088000840A7F
:1002A2007008BD007108BE0047208A110A1243304F
:1002B20083120313D5003030D6000A30D700003045
:1002C200D8004E20AA010130F0006C29A50A0129AC
:0802D200A70AFC28F001080056
:1002DA0083120313D301510884000008D200520884
:1002EA00003A031982295208D5002420D30A530858
:0C02FA00510784000008D200742908009D
:10030600831203134208003A031D92295008403A0B
:10031600031D92290130A4005008D5002420033083
:100326004202031C9D2950082A3A031D9D290130CB
:06033600AA00A40108006A
:10033C00831203131A08F100981CA6291812181618
:06034C007108F00008003A
:100352000A308312031342020318BA292408013A0D
:10036200031DBA298C124208433E840050088000C3
:04037200C20A0800B3
:1003760019308316031399001815A62007309F001D
:1003860002308316860085018312850186018B174C
:100396000B1783168C168312CF01DA207018D62914
:1003A60083128612D829831286160130CF00DA20EE
:1003B6007018E02983120612E22983120616080035
:1003C600B6208A110A128000840ABD0A0319BE0AE1
:0803D600F003031DE3290800F8
:1003DE00831203132A080319172A8C12C201433001
:1003EE00D1004030D2000A30D3000030D400BD20FE
:1003FE007008BC007008D1005F30D200E420700895
:10040E00C0007008D1003C08D200F9207008013AF3
:10041E00031D152A4330D1006D21172AF001172A2A
:02042E000800C4
:1004300083120313A401A501A601A7013830A80067
:100440003130A900AA019E30AB000030AC00223050
:10045000AD009630AE000030AF002330B000613008
:10046000B1006C30B2006130B3007230B4006D3056
:10047000B5006130B600B7016C30B8007530B90016
:0A0480007A30BA00BB01BB21442A08
:02400E00392156
:020000040000FA
:10420000300030003000300030003000300030002E
:10421000300030003000300030003000300030001E
:10422000300030003000300030003000300030000E
:1042300030003000300030003000300030003000FE
:1042400030003000300030003000300030003000EE
:1042500030003000300030003000300030003000DE
:1042600030003000300030003000300030003000CE
:1042700030003000300030003000300030003000BE
:1042800030003000300030003000300030003000AE
:10429000300030003000300030003000300030009E
:1042A000300030003000300030003000300030008E
:1042B000300030003000300030003000300030007E
:1042C000300030003000300030003000300030006E
:1042D0003000FF00FF00FF00FF00FF00FF00FF00B5
:1042E000FF00FF00FF00FF00FF00FF00FF00FF00D6
:1042F000FF00FF00FF00FF00FF00FF00FF00FF00C6
:00000001FF

