:02000000192BBA
:10000800FF00030E8301E1000A08E2008A0170087C
:10001800A0000408A1000E237008CA007008E300BD
:10002800AC224A08E300D1222C220C1C372880304D
:1000380086068F018E0110100330FB008A30FC0009
:100048005530FD00FD0B2628FC0B2628FB0B262827
:10005800000000000A30E300C72270088312E6009F
:100068006B2110140C102008F0002108840062088D
:0C0078008A00610E8300FF0E7F0E09005D
:10008400831603132008F2002208F0002308F1006D
:100094000130A202031CA303700871040319582839
:1000A4007208840021088000F20A46282008F00023
:0200B400080042
:0E00B6008312031347088A00460882000800E0
:1000C400831203137008F100F0010830FC0071087A
:1000D400F40C03187128FC0B6A28F1010034031096
:1000E4007628F40C0318F107F10CF00CFC0B7328C0
:0200F400080002
:1000F600831603139C1C812800007B2883126D083D
:1001060083169B0083126E0883169A009C131C1597
:100116000B08F0008B1355309D00AA309D009C14EF
:0E012600F01B97288B1398288B171C110800CC
:1001340083120313FB01FA01F9018030F800F10C7A
:10014400F00C031CAE287408F90775080318750F22
:10015400FA070318FB0A0310F01FB6287408FA07FD
:1001640075080318750FFB07FB0CFA0CF90CF80C57
:10017400031CA1287B08F3007A08F2007908F10037
:060184007808F0000800FD
:10018A00831203136D08313A031DCE280130F000A3
:10019A00D4286D08303A031DD428F001D428080069
:1001AA00831203132318DB280612DC28061608001C
:1001BA00831203136D08393C031CEA2830306D02A0
:0E01CA00031CEA280130F000EB28F0010800C9
:1001D800831203132218F2288612F32886160800C1
:0E01E8008312031347088A00460882000800AD
:1001F60083120313660884000008E700E801003054
:10020600E80000306806031D0A2920306706031936
:10021600152900306806031D1229093067060319DF
:1002260015291729E60AFB28E901EA01EB01EC0189
:1002360000306806031D21292D306706031D282975
:10024600EB0A0319EC0AE60A312900306806031D99
:100256002E292B306706031D3129E60A660884001D
:100266000008E700E8010030E8006708ED00DD203F
:100276007008031959296908F0006A08F1000A3064
:10028600F4000030F5009A2030306702F2000030AA
:10029600031C013E6802F30072087007E90071084A
:1002A6000318013E7307EA00E60A31296B086C045D
:1002B600031966296908003CF0006A08031C013E20
:1002C600F101F1026A296908F0006A08F1000800E4
:1002D600831603139818712900006B298312660888
:0402E6009900080073
:1002EA008316031398169030831298008316861487
:1002FA00061183128C1E84291A08F0007E29080030
:10030A00831203136608F2006808F0006908F10016
:10031A000130E802031CE903700871040319A029DB
:10032A007208840000086706031D9E297208F000FF
:0A033A00A129F20A8929F001080048
:1003440083120313E8016808013EF000F101031869
:10035400F10A700866078400000867060319B429C7
:0A036400E80AA5296808F000080067
:10036E0083120313A4010330240203182A2AA901BD
:10037E00660829020318282A2408253E840000084E
:10038E00F0002908700784000008F2002908013ED9
:10039E00F000F1010318F10A700867078400720873
:1003AE000006031D262AA80A28086606031D262A0B
:1003BE00A80102306607F000F1010318F10A700877
:1003CE00670784000008F0007008C9007008ED008F
:1003DE00C5207008C9002408ED007008EE007B20CF
:1003EE000330F00083122408F400622070082B3EC4
:1003FE0084000008F000840A0008F100840A000856
:10040E00F200840A00087208840049088000840AF9
:10041E007008C6007108C7005B208A110A124D30A1
:10042E0083160313A0003030A1001430A200003058
:10043E00A30042208312AA010130F0002B2AA90A40
:0A044E00BF29A40ABA29F001080032
:1004580083120313E4010A30E5002A080319AB2AC2
:100468008C12C5014D30E6003A30E7001430E80040
:100478000030E90085217008C8007008003A0319A7
:100488009F2A0130E3000C3063020318922A6308A4
:10049800480784000008ED00DD2070080319652A6C
:1004A800023064020318652A64084B3EF1006308B1
:1004B800480784000008F000710884007008800074
:1004C800E40A6408023A031D8A2A4B30E600FB203E
:1004D8007008B1007108B2006508ED007008EE0000
:1004E8007B204130FC00EE30FD00FD0B792AFC0B2F
:1004F800792A00004B30A0003030A1000230A20061
:100508000030A30042208312E50AE40165080E3A90
:10051800031D902A0A30E500E30A472A4D30831666
:10052800A0003030A1001430A2000030A300422007
:100538008312AA01AB2A4D30E6005F30E700A22102
:100548007008C4007008E6004D30E700B7210800C5
:10055800831203134508003A031DBB2A6308403A77
:10056800031DBB2A0130B3006308E6006B2103308A
:100578004502031CC62A63082A3A031DC62A01300D
:06058800AA00B301080007
:10058E0083120313630883169B009C131C141A0812
:04059E00F000080061
:1005A20014308312031345020318E22A3308013A76
:1005B200031DE22A8C1245084D3E84006308800028
:0405C200C50A08005E
:1005C600F4208A110A128000840AC60A0319C70A8F
:0805D600F003031DE32A0800F5
:1005DE0019308316031399001815752107309F00E3
:1005EE0002308316860085018312850186018B17E2
:1005FE000B1783168C1683120C108F018E01901020
:0E060E001016901683160C1483121014080098
:10061C00831203131A08F100981C162B18121816C3
:06062C007108F000080057
:1006320083120313A4014030A5003930A6003430E0
:10064200A700A801A901AA01EC30AB000030AC0060
:100652002230AD00D530AE000030AF002330B00004
:10066200B101B201B3017430B4006930B5006D302C
:10067200B6006530B700B8016130B9006C30BA001D
:100682006130BB007230BC006D30BD006130BE0015
:10069200BF016C30C0007530C1007A30C200C301A6
:0406A200EF22522BC6
:02400E00392156
:020000040000FA
:10420000300030003000300030003000300030002E
:10421000300030003000300030003000300030001E
:10422000300030003000300030003000300030000E
:1042300030003000300030003000300030003000FE
:1042400030003000300030003000300030003000EE
:1042500030003000300030003000300030003000DE
:1042600030003000300030003000300030003000CE
:1042700030003000300030003000300030003000BE
:1042800030003000300030003000300030003000AE
:10429000300030003000300030003000300030009E
:1042A000300030003000300030003000300030008E
:1042B000300030003000300030003000300030007E
:1042C000300030003000300030003000300030006E
:1042D0003000FF00FF00FF00FF00FF00FF00FF00B5
:1042E000FF00FF00FF00FF00FF00FF00FF00FF00D6
:1042F000FF00FF00FF00FF00FF00FF00FF00FF00C6
:00000001FF

