:02000000CF2906
:10000800FF00030E8301CC000A08CD008A017008A6
:10001800A0000408A1009421700803191D28892153
:100028007008BF007008CF0070213F08CF005E2124
:100038004A212008F000210884004D088A004C0E4F
:080048008300FF0E7F0E09008A
:10005000831203135308F2005508F0005608F1000C
:100060000130D502031CD6037008710403193E2821
:100070007208840054088000F20A2C285308F0000B
:02008000080076
:0E008200831203133D088A003C088200080028
:10009000831203137008F100F0010830FC007108AE
:1000A000F40C03185728FC0B5028F10100340310FE
:1000B0005C28F40C0318F107F10CF00CFC0B592828
:0200C000080036
:1000C20083120313231867280612682806160800ED
:1000D200831203135308313A031D72280130F000D2
:1000E20078285308303A031D7828F0017828080050
:1000F2008312031322187F2886128028861608008E
:10010200831603139C1C872800008128831253083E
:1001120083169B008312540883169A009C131C15A5
:100122000B08F0008B1355309D00AA309D009C14E3
:0E013200F01B9D288B139E288B171C110800B4
:100140008316031398169030831298008316861432
:10015000061183128C1EAF281A08F000A928080087
:10016000831203134E0883169B009C131C141A0859
:04017000F000080093
:0E017400831203133D088A003C088200080035
:1001820083120313D2015208013EF000F101031859
:10019200F10A700850078400000851060319D32899
:0A01A200D20AC4285208F000080039
:1001AC0083120313A7010230270203184829A50163
:1001BC0050082502031846292708283E8400000809
:1001CC00F0002508700784000008F2002508013EA5
:1001DC00F000F1010318F10A70085107840072084D
:1001EC000006031D4429A60A26085006031D4429AF
:1001FC00A60102305007F000F1010318F10A700853
:10020C00510784000008F0007008C0007008D3008B
:10021C0069207008C0002708D3007008D400812022
:10022C000330F00083122708F400482070082B3E9E
:10023C0084000008F000840A0008F100840A000819
:10024C00F200840A00087208840040088000840AC6
:10025C007008BC007108BD0041208A110A1242309E
:10026C0083120313D3003030D4000A30D500003091
:10027C00D6002820AA010130F0004929A50ADE2861
:08028C00A70AD928F0010800BF
:10029400831203132A0803195D298C12C101423009
:1002A400D0005F30D100C1207008BE007008D000BB
:0802B4004230D100D620080001
:1002BC000A3083120313410203186F292408013AF0
:1002CC00031D6F298C124108423E84004F088000A8
:0402DC00C10A08004B
:1002E000831203134108003A031D7D294F08403A49
:1002F000031D7D290130A400AA0103304102031C23
:1003000088294F082A3A031D88290130AA00A40130
:020310000800E3
:10031200831203131A08F100981C91291812181657
:060322007108F000080064
:0E0328000030831203138C1A0130F00008001D
:1003360019308316031399001815A02007309F0063
:1003460002308316860085018312850186018B178C
:100356000B1783168C168312CE01B0207018B6299F
:1003660083128612B829831286160130CE00B02079
:100376007018C02983120612C229831206160800B5
:10038600BA208A110A128000840ABC0A0319BD0A1F
:08039600F003031DC329080058
:10039E0083120313A401A501A601A7013830A800FA
:1003AE003130A900AA017930AB000030AC00223008
:1003BE00AD006130AE000030AF002330B0006130D0
:1003CE00B1006C30B2006130B3007230B4006D30E9
:1003DE00B5006130B600B7016C30B8007530B900A9
:0A03EE007A30BA00BB019B21FB2905
:02400E00392156
:020000040000FA
:10420000300030003000300030003000300030002E
:10421000300030003000300030003000300030001E
:10422000300030003000300030003000300030000E
:1042300030003000300030003000300030003000FE
:1042400030003000300030003000300030003000EE
:1042500030003000300030003000300030003000DE
:1042600030003000300030003000300030003000CE
:1042700030003000300030003000300030003000BE
:1042800030003000300030003000300030003000AE
:10429000300030003000300030003000300030009E
:1042A000300030003000300030003000300030008E
:1042B000300030003000300030003000300030007E
:1042C000300030003000300030003000300030006E
:1042D0003000FF00FF00FF00FF00FF00FF00FF00B5
:1042E000FF00FF00FF00FF00FF00FF00FF00FF00D6
:1042F000FF00FF00FF00FF00FF00FF00FF00FF00C6
:00000001FF

