:02000000D02806
:10000800FF00030E8301B9000A08BA008A017008CC
:10001800A0008C1E1E281430210203181E288C12E2
:100028002108253EBB0079203B0884007008800029
:10003800A10A41288C12A1012530BC007930BD00ED
:100048001430BE000030BF0084207008A400823045
:10005800FC00DD30FD00FD0B2F28FC0B2F280000D5
:1000680000002408BC00A1202530BC007830BD0069
:100078001430BE000030BF00B7202008F0003A0856
:0C0088008A00390E8300FF0E7F0E090075
:10009400831603139818502800004A288312400836
:0400A40099000800B7
:1000A80083160313981690308312980083168614CB
:1000B800061183128C1E63281A08F0005D280800B8
:1000C8000730831203139F000230831686008501D0
:1000D800831285018601193083169900181554205A
:0A00E8008B170B1783168C16080007
:1000F200831203131A08F100981C8128181218168B
:060102007108F000080086
:10010800831203133C08F2003E08F0003F08F10098
:100118000130BE02031CBF037008710403199F2835
:100128007208840000083D06031D9D287208F0002F
:0A013800A028F20A8828F001080050
:1001420083120313BE013C0884000008BD003D0871
:10015200003A0319B6283D08C0004A20BE0A3E08EC
:0C0162003C0784000008BD00A82808002D
:10016E00831203133C08F2003E08F0003F08F10032
:10017E000130BE02031CBF03700871040319CD28A1
:10018E00720884003D088000F20ABB283C08F0008B
:02019E00080057
:0401A0006420D128DE
:02400E00392156
:00000001FF
