:02000000472C8B
:10000800FF00030E8301EA000A08E9008A0170086C
:10001800A0000408A1004024700803191D28D52356
:100028007008D3007008EB00E0235308EB000324AA
:10003800C2230C1C2F280C108F018E01B20A101439
:100048003208143A031D2F28B201403086062730A3
:100058008316B0008A2183122008F000210884004A
:0E00680069088A006A0E8300FF0E7F0E0900F1
:10007600831603133B08393C031C482830303B02E7
:0E008600031C48280130F0004928F001080052
:1000940083120313FB01FA01F9018030F800F10C1B
:1000A400F00C031C5E287408F90775080318750F13
:1000B400FA070318FB0A0310F01F66287408FA07EE
:1000C40075080318750FFB07FB0CFA0CF90CF80CF8
:1000D400031C51287B08F3007A08F2007908F10028
:0600E4007808F00008009E
:0E00EA00831203134D088A004C0882000800A0
:1000F800831203137008F100F0010830FC00710846
:10010800F40C03188B28FC0B8428F101003403102D
:100118009028F40C0318F107F10CF00CFC0B8D2857
:020128000800CD
:10012A008312031323189B2806129C28061608001C
:10013A00831203132218A3288612A42886160800FD
:10014A00831603133408313A031DAE280130F00038
:10015A00B4283408303A031DB428F001B428080042
:10016A00831603139818BB280000B5283408831295
:04017A0099000800E0
:10017E00831603133408F2003608F0003708F10036
:10018E000130B602031CB703700871040319D52899
:10019E007208840035088000F20AC3283408F00083
:0201AE00080047
:1001B000831603139C1CDE280000D82834089B00FB
:1001C00035089A009C131C150B08F0008B13553052
:1001D0009D00AA309D009C14F01BF0288B13F12881
:0601E0008B171C11080042
:1001E60083160313340884000008B500B6010030F6
:1001F600B60000303606031D0229203035060319E5
:100206000D2900303606031D0A2909303506031963
:100216000D290F29B40AF328B701B801B901BA01AB
:1002260000303606031D19292D303506031D2029F9
:10023600B90A0319BA0AB40A292900303606031D79
:1002460026292B303506031D2929B40A34088400D3
:100256000008B500B6010030B6003508BB003B20EB
:100266007008031952293708F0003808F1000A30DF
:10027600F4000030F5004A20303083163502F200D3
:100286000030031C013E3602F30072087007B70007
:1002960071080318013E7307B800B40A2929390802
:1002A6003A0403195F293708003CF0003808031C9C
:1002B600013EF101F10263293708F0003808F10028
:0202C60008002E
:1002C8008316031330089B009C131C141A08F000B3
:0202D80008001C
:1002DA00831603133008F2003208F0003308F100E5
:1002EA000130B202031CB303700871040319882990
:1002FA007208840000083106031D86297208F0007E
:0A030A008929F20A7129F0010800A8
:1003140083160313B201300884000008B1003108C9
:10032400003A0319A0293108B400B5208316B20A93
:0E0334003208300784000008B100912908004B
:1003420083160313B201B3010130B1000D30310243
:100352000318F2293108300784000008BB003B2053
:1003620070080319C529023032020318C529320860
:100372004F3EF1003108300784000008F000710898
:10038200840070088000B20A3208023A031DEA298A
:100392004F30B400F32070088312B6007108B70022
:1003A20083163308B4007008B500D8202730FC004B
:1003B200F530FD00FD0BDB29FC0BDB294F30B400CF
:1003C2003030B5000230B6000030B700BF20B30AAB
:1003D200B2013308043A031DF0290A30B300B10A0E
:1003E200A7295430B4003030B5001530B6000030C3
:0A03F200B700BF208312BE0108000F
:1003FC0083120313B3010330330203187D2AB501B2
:10040C00831630088312350203187B2A3308243EE6
:10041C0084000008F0003508700784000008F20022
:10042C003508013EF000F1010318F10A700883163B
:10043C003107840072080006031D782A8312B40A5F
:10044C00340883163006031D782A8312B401023057
:10045C0083163007F000F1010318F10A7008310718
:10046C0084000008F00070088312D1007008831615
:10047C00B400A52070088312D10033088316B40091
:10048C007008B500D8200330F00083123308F40054
:10049C007C207008383E84000008F000840A0008B4
:1004AC00F100840A0008F200840A00087208840033
:1004BC0051088000840A7008CC007108CD007520AA
:1004CC008A110A12543083160313B4003030B5006D
:1004DC001530B6000030B700BF208312BE010130CA
:1004EC00F0007E2A8312B50A062AB30A012AF0010B
:0204FC000800F6
:1004FE0083160313B2013208013EF000F101031816
:10050E00F10A700830078400000831060319912A99
:0A051E00B20A822A3208F000080039
:10052800783083160313A4007830A5007830A6002D
:100538007830A700A801A901AA01AB01AC01AD015F
:100548000130A900063029020318C62A2908831297
:100558006C07840000088316BB003B207008031951
:10056800C42A2A08A43EF100290883126C078400D3
:100578000008F00071088400700880008316AA0A39
:10058800A90AA62AA430B0008A218230FC00DD30F6
:10059800FD00FD0BCD2AFC0BCD2A0000000024082D
:1005A8008312ED00831625088312EE00A630831609
:1005B800B400F3207008AB007108AC006D30B400D3
:1005C800F3207008A0007108A1002B08A2002C08D5
:1005D800A3002008B400B5204130FC00EE30FD0037
:1005E800FD0BF42AFC0BF42A000083162208B40041
:1005F800B5204130FC00EE30FD00FD0B012BFC0B5B
:10060800012B00008316A901023029020318442B8C
:100618002908F000F00D70107008A03E8400000852
:10062800AE00840A0008AF002908B0006421003039
:100638002F06031D212B70082E06031D2D2B41307C
:10064800FC00EE30FD00FD0B272BFC0B272B0000D8
:10065800AD0A2D08B400B52083162D08013A031DF4
:10066800422B8312861654308316B4003030B500FE
:100678001530B6000030B700BF20AD01A90A082B1D
:10068800AD01A901023029020318832B2908F000C3
:10069800F00D70107008A03E84000008AE00840AB7
:1006A8000008AF002908023EB000642100302F0680
:1006B800031D602B70082E06031D6C2B4130FC00B7
:1006C800EE30FD00FD0B662BFC0B662B0000AD0A1F
:1006D8002D08B400B52083162D08013A031D812B7F
:1006E8008312861254308316B4003030B5001530AA
:1006F800B6000030B700BF20AD01A90A462B08009C
:10070800543083160313B0003A30B1001530B200EC
:100718000030B3006D2170088312D2007008003ACF
:1007280003199B2B52088316B000A121AA2B543021
:100738008316B0005F30B1007F2270088312CB00AF
:0E07480070088316B0005430B100FE21080086
:0E075600831203134D088A004C08820008002D
:100764008316031398169030831298008316861408
:10077400061183128C1EC12B1A08F000BB2B080033
:10078400831203133E080319D42B8C12CE01540890
:100794002C3A031DD32B5430EC0094228312BE0157
:0607A400D42B84230800A1
:1007AA00831203131A08F100981CDD2B181218166D
:0607BA007108F0000800C8
:1007C000831203134E08003A031DF22B6B08403AC4
:1007D0000319EF2B6B082C3A0319EF2BF22B013086
:1007E000BF00BE0103304E02031C022C6B082A3AE4
:1007F0000319FF2B6B082D3A0319FF2B022C013034
:06080000BE00BF0108006C
:100806001530831203134E020318142C3F08013AC5
:10081600031D142C8C124E08543E84006B08800075
:04082600CE0A0800EE
:10082A00AB238A110A128000840ACC0A0319CD0A62
:08083A00F003031D152C08005A
:1008420019308316031399001815B22307309F003D
:1008520002308316860085018312850186018B177B
:100862000B1783168C1683120C108F018E019010B9
:0E0872001016901683160C1483121014080032
:0E0880000030831203138C1A0130F0000800C0
:06088E0076242124492C10
:1008EC0024308400273083120313F0004F30CC00E7
:0808FC000430CD0015240800B2
:06089E0047344034003431
:1008A400413454342B34433443344C344B343F3488
:0608B4000D340A3400348B
:0208BA00003408
:0208BC00003406
:0208BE00003404
:0208C000003402
:0408C20000340034CA
:0C08C6009D340034223495340034233477
:0208D2000034F0
:0208D4000034EE
:0E08D60061346C34613472346D34613400343A
:0808E4006C3475347A340034E1
:02400E00392156
:020000040000FA
:10420000300030003000300030003000300030002E
:10421000300030003000300030003000300030001E
:10422000300030003000300030003000300030000E
:1042300030003000300030003000300030003000FE
:1042400030003000300030003000300030003000EE
:1042500030003000300030003000300030003000DE
:1042600030003000300030003000300030003000CE
:1042700030003000300030003000300030003000BE
:1042800030003000300030003000300030003000AE
:10429000300030003000300030003000300030009E
:1042A000300030003000300030003000300030008E
:1042B000300030003000300030003000300030007E
:1042C000300030003000300030003000300030006E
:1042D0003000FF00FF00FF00FF00FF00FF00FF00B5
:1042E000FF00FF00FF00FF00FF00FF00FF00FF00D6
:1042F000FF00FF00FF00FF00FF00FF00FF00FF00C6
:00000001FF

