:020000000A2CC8
:10000800FF00030E8301EF000A088316A0008A018F
:1000180070088312A0000408A100CF2370080319F8
:100028002328B8237008ED0070088316A1009023D8
:10003800831203136D088316A1006523D6230C1CB5
:1000480033280C108F018E01BA0A10143A08193A95
:10005800031D3328BA0124308316A10079238312A3
:100068002008F00021088400831620088A008312E3
:0A0078006F0E8300FF0E7F0E0900DB
:1000820083120313FB01FA01F9018030F800F10C2D
:10009200F00C031C55287408F90775080318750F2E
:1000A200FA070318FB0A0310F01F5D287408FA0709
:1000B20075080318750FFB07FB0CFA0CF90CF80C0A
:1000C200031C48287B08F3007A08F2007908F10043
:0600D2007808F0000800B0
:1000D800831603133A08393C031C792830303A0256
:0E00E800031C79280130F0007A28F00108008E
:1000F600831203137008F100F0010830FC00710848
:10010600F40C03188A28FC0B8328F1010034031031
:100116008F28F40C0318F107F10CF00CFC0B8C285B
:020126000800CF
:10012800831603133308313A031D9D280130F0006C
:10013800A3283308303A031DA328F001A328080098
:10014800831203132318AA280612AB2806160800E0
:0E0158008312031355088A0054088200080021
:10016600831203132218B9288612BA2886160800A5
:10017600831603133308F2003508F0003608F10041
:100186000130B502031CB603700871040319D128A7
:100196007208840034088000F20ABF283308F00091
:0201A60008004F
:1001A800831603139C1CDA280000D42833089B000C
:1001B80034089A009C131C150B08F0008B1355305B
:1001C8009D00AA309D009C14F01BEC288B13ED2891
:0601D8008B171C1108004A
:1001DE008316031333089B009C131C141A08F0009B
:0201EE00080007
:1001F00083160313330884000008B400B5010030EF
:10020000B50000303506031D0729203034060319D8
:10021000122900303506031D0F2909303406031951
:1002200012291429B30AF828B601B701B801B90197
:1002300000303506031D1E292D303406031D2529E7
:10024000B80A0319B90AB30A2E2900303506031D6E
:100250002B292B303406031D2E29B30A33088400C2
:100260000008B400B5010030B5003408BA006C20B5
:100270007008031957293608F0003708F1000A30D2
:10028000F4000030F5004120303083163402F200D3
:100290000030031C013E3502F30072087007B600FF
:1002A00071080318013E7307B700B30A2E293808F6
:1002B0003904031964293608003CF0003708031C90
:1002C000013EF101F10268293608F0003708F1001B
:0202D000080024
:1002D20083120313AF0103302F020318E829B90177
:1002E20083162F08831239020318E6292F08363E97
:1002F20084000008F0003908700784000008F2004A
:100302003908013EF000F1010318F10A7008831662
:100312003007840072080006031DE3298312C10A14
:10032200410883162F06031DE3298312C1010230FF
:1003320083162F07F000F1010318F10A7008300745
:1003420084000008F00070088312EE007008831623
:10035200B300942070088312EE002F088316B300B6
:100362007008B400D4200330F00083122F08F40088
:100372007B2070083B3E84000008F000840A0008DD
:10038200F100840A0008F200840A0008720884005E
:100392006E088000840A7008D4007108D500AC2071
:1003A2008A110A12583083160313B3003030B40096
:1003B2001530B5000030B600BB208312B501013004
:1003C200F000E9298312B90A7129AF0A6C29F001F8
:0203D200080021
:1003D400831603132F08F2003108F0003208F100ED
:1003E4000130B102031CB203700871040319052A19
:1003F4007208840000083006031D032A7208F00006
:0A040400062AF20AEE29F0010800B2
:10040E0083160313B1013108013EF000F101031808
:10041E00F10A70082F078400000830060319192A04
:0A042E00B10A0A2A3108F0000800A4
:1004380083160313B0018312AF0102302F02031891
:10044800542A2F08303E84000008F0007008840009
:1004580000088316B100840A0008B20083122F082E
:1004680083162F07B300EF2000303206031D3E2A03
:1004780070083106031D4A2A4130FC00EE30FD00A9
:10048800FD0B442AFC0B442A0000B00A3008023A4B
:10049800031D512A0130F000552A8312AF0A212A80
:0404A800F001080057
:1004AC0083160313B101B2010130B0000D303002DC
:1004BC000318A72A30082F0784000008BA006C2004
:1004CC00700803197A2A0230310203187A2A31088B
:1004DC00513EF10030082F0784000008F00071082D
:1004EC00840070088000B10A3108023A031D9F2A6B
:1004FC005130B300F82070088312B3007108B400B7
:10050C0083163208B3007008B400D4202730FC00E6
:10051C00F530FD00FD0B902AFC0B902A5130B300F6
:10052C003030B4000230B5000030B600BB20B20A47
:10053C00B1013208043A031DA52A0A30B200B00AF0
:10054C005C2A5830B3003030B4001530B5000030A0
:0A055C00B600BB208312B5010800B1
:10056600583083160313AF003A30B0001530B1008F
:100576000030B200EA2170088312D6007008003AF3
:100586000319CA2A56088316AF005622D92A5830AC
:100596008316AF005F30B000072270088312D700C1
:0E05A60070088316AF005830B00069210800BD
:1005B400831603139818E02A0000DA2A2408831209
:0405C4009900080092
:1005C800783083160313A8007830A9007830AA0081
:1005D8007830AB00AC01AD01AE010130AD000630A2
:1005E8002D0203180F2B2D08240784000008BA00D9
:1005F8006C20700803190D2B2E08A83EF1002D0859
:10060800240784000008F000710884007008800046
:10061800AE0AAD0AF32A2808A5002908A600AA30C0
:10062800B300F82070088312C2007108C300A53017
:100638008316B300F82070088312CB007108CC0031
:100648008316AF011C22831203137008013A031D9D
:10065800382B861658308316B3003030B400153066
:10066800B5000030B600BB2083160230AF001C2254
:10067800831203137008013A031D4D2B861258305C
:100688008316B3003030B4001530B5000030B60022
:04069800BB2008007B
:10069C0083160313981690308312980083168614D1
:1006AC00061183128C1E5D2B1A08F000572B0800C4
:0E06BC008312031355088A00540882000800B8
:1006CA0015308312031353020318782B3208013AA8
:1006DA00031D782B8C125308583E84008316210878
:0806EA0080008312D30A08000E
:1006F20083160313A301210884000008A200220824
:10070200003A03198F2B2208A400DA228316A30AC7
:0E0712002308210784000008A200802B0800A5
:10072000831203135308003A031DA42B83162108D8
:10073000403A0319A02B21082C3A0319A02BA42B13
:1007400001308312B200B501831203305302031C3F
:10075000B72B831621082A3A0319B32B21082D3A07
:100760000319B32BB72B01308312B500B201080077
:10077000831203131A08F100981CC02B18121816C4
:060780007108F000080002
:100786005E238A110A128000840AD40A0319D50A44
:08079600F003031DC32B080052
:0E079E000030831203138C1A0130F0000800A3
:1007AC008312031335080319EA2B8C12D301580852
:1007BC002C3A031DE92B58308316A400E422831233
:0A07CC000313B501EA2BB322080065
:1007D600193083160313990018154E2307309F000E
:1007E60002308316860085018312850186018B17E8
:1007F6000B1783168C1683120C108F018E01901026
:0E0806001016901683160C148312101408009E
:060814004024EB230C2C34
:10088000243084002D3083120313F0001230D40082
:080890000430D500C323080069
:10082400413454342B34433443344C344B343F3408
:060834000D340A3400340B
:02083A00003488
:04083C004B344234C3
:02084000003482
:04084200003400344A
:0208460000347C
:060848004D34443400347D
:02084E00003474
:02085000003472
:0C085200B33400342234A43400342334C6
:02085E00003464
:040860000A34003422
:0E08640061346C34613472346D3461340034AC
:040872000934003411
:080876006C3475347A3400344F
:02400E00392156
:020000040000FA
:10420000300030003000300030003000300030002E
:10421000300030003000300030003000300030001E
:10422000300030003000300030003000300030000E
:1042300030003000300030003000300030003000FE
:1042400030003000300030003000300030003000EE
:1042500030003000300030003000300030003000DE
:1042600030003000300030003000300030003000CE
:1042700030003000300030003000300030003000BE
:1042800030003000300030003000300030003000AE
:10429000300030003000300030003000300030009E
:1042A000300030003000300030003000300030008E
:1042B000300030003000300030003000300030007E
:1042C000300030003000300030003000300030006E
:1042D0003000FF00FF00FF00FF00FF00FF00FF00B5
:1042E000FF00FF00FF00FF00FF00FF00FF00FF00D6
:1042F000FF00FF00FF00FF00FF00FF00FF00FF00C6
:00000001FF

