:02000000F82BDB
:10000800FF00030E8301EA000A08E9008A0170086C
:10001800A0000408A100F123700803191D288723F4
:100028007008CA007008EB0092234A08EB00B4235A
:1000380076230C1C2B280C108F018E01AC0A10148F
:100048002C08043A031D2B28AC01803086062008B2
:10005800F0002108840069088A006A0E8300FF0EF8
:040068007F0E0900FE
:10006C00831603132C08393C031C432830302C0214
:0E007C00031C43280130F0004428F001080066
:10008A0083120313FB01FA01F9018030F800F10C25
:10009A00F00C031C59287408F90775080318750F22
:1000AA00FA070318FB0A0310F01F61287408FA07FD
:1000BA0075080318750FFB07FB0CFA0CF90CF80C02
:1000CA00031C4C287B08F3007A08F2007908F10037
:0600DA007808F0000800A8
:0E00E000831203134D088A004C0882000800AA
:1000EE00831203137008F100F0010830FC00710850
:1000FE00F40C03188628FC0B7F28F1010034031042
:10010E008B28F40C0318F107F10CF00CFC0B88286B
:02011E000800D7
:100120008312031323189628861297288616080030
:100130008312031322189E2806129F280616080011
:10014000831603139C1CA6280000A02825089B00EA
:1001500026089A009C131C150B08F0008B135530D1
:100160009D00AA309D009C14F01BB8288B13B92861
:060170008B171C110800B2
:10017600831603132508F2002708F0002808F1006B
:100186000130A702031CA803700871040319D128C3
:100196007208840026088000F20ABF282508F000AD
:0201A60008004F
:1001A800831603132508313A031DDD280130F000BA
:1001B800E3282508303A031DE328F001E328080066
:1001C80083160313250884000008A600A701003041
:1001D800A70000302706031DF32820302606031940
:1001E800FE2800302706031DFB28093026060319C0
:1001F800FE280029A50AE428A801A901AA01AB0143
:1002080000302706031D0A292D302606031D112953
:10021800AA0A0319AB0AA50A1A2900302706031DE2
:1002280017292B302606031D1A29A50A250884003C
:100238000008A600A7010030A7002608AC00362059
:100248007008031943292808F0002908F1000A302A
:10025800F4000030F5004520303083162602F20005
:100268000030031C013E2702F30072087007A80043
:1002780071080318013E7307A900A50A1A292A085C
:100288002B04031950292808003CF0002908031CF6
:10029800013EF101F10254292808F0002908F10073
:0202A80008004C
:1002AA00831603132108F2002308F0002408F10042
:1002BA000130A302031CA4037008710403197029F6
:1002CA007208840000082206031D6E297208F000D5
:0A02DA007129F20A5929F001080009
:1002E4008316031321089B009C131C141A08F000A6
:0202F400080000
:1002F60083160313A3012308013EF000F10103183E
:10030600F10A7008210784000008220603198D29C6
:0A031600A30A7E292308F000080066
:1003200083160313A3010A30A4000130A2000C308D
:1003300022020318E2292208210784000008AC00E9
:10034000362070080319B529023023020318B52995
:1003500023084F3EF1002208210784000008F00026
:100360007108840070088000A30A2308023A031D64
:10037000DA294F30A500E42070088312B00071081C
:10038000B10083162408A5007008A600A02027301D
:10039000FC00F530FD00FD0BCB29FC0BCB294F30C9
:1003A000A5003030A6000230A7000030A800BB2016
:1003B000A40AA30124080E3A031DE0290A30A40070
:1003C000A20A97295130A5003030A6001430A700AA
:0C03D0000030A800BB208312AE01080022
:1003DC0083120313B5010330350203186D2AAA01E9
:1003EC008316210883122A0203186B2A3508323E21
:1003FC0084000008F0002A08700784000008F2004E
:10040C002A08013EF000F1010318F10A7008831666
:10041C002207840072080006031D682A8312AB0AA7
:10042C002B0883162106031D682A8312AB010230A8
:10043C0083162107F000F1010318F10A7008220756
:10044C0084000008F00070088312CB00700883163B
:10045C00A500D42070088312CB0035088316A500A4
:10046C007008A600A0200330F00083123508F400B9
:10047C0077207008243E84000008F000840A0008ED
:10048C00F100840A0008F200840A00087208840053
:10049C004B088000840A7008CC007108CD007020D5
:1004AC008A110A12513083160313A5003030A600AE
:1004BC001430A7000030A800BB208312AE0101301D
:1004CC00F0006E2A8312AA0AF629B50AF129F00166
:0204DC00080016
:1004DE00513083160313A1002030A2001430A30064
:1004EE000030A400552170088312E5007008003A10
:1004FE000319862A65088316A1009021952A51308A
:10050E008316A1005F30A2007B2170088312E600E3
:0E051E0070088316A1005130A200EE210800E3
:10052C0083120313ED01EE01EF010130ED000630F3
:10053C006D0203185E2B6D086C078400000883168F
:10054C00AC00362070080319BD2A023083126E02EB
:10055C000318BD2A6E08673EF1006D086C07840015
:10056C000008F0007108840070088000EE0A831205
:10057C006E08023A031DD92A6F08363E8316A00076
:10058C006730A500E42020088400700880004F30FC
:10059C00A5003030A6000230A7000030A800BB2018
:1005AC008312EF0AEE016F08023A031D1A2B2F0873
:1005BC00003A031D1A2BEF01ED0102306D020318F6
:1005CC001A2B6D08363E840000088316A000831297
:1005DC006D080A3E8316A100722120087006031DC7
:1005EC00022B8312EF0A4130FC00EE30FD00FD0BB4
:1005FC00FD2AFC0BFD2A000083126F08023A031D32
:10060C00172BEF018616AE010130AF005130831667
:10061C00A5003030A6001430A7000030A800BB2085
:10062C001A2B8312ED0AE32A83126F08023A031D78
:10063C005B2B2F08013A031D5B2BEF01ED01023000
:10064C006D0203185B2B6D08363E84000008831680
:10065C00A00083126D080C3E8316A10072212008A5
:10066C007006031D442B8312EF0A4130FC00EE3060
:10067C00FD00FD0B3F2BFC0B3F2B000083126F0882
:10068C00023A031D582BEF018612AE01AF01513017
:10069C008316A5003030A6001430A7000030A80047
:1006AC00BB205B2B8312ED0A252B8312ED0A9D2AAE
:0206BC00080034
:1006BE0083160313981690308312980083168614AF
:1006CE00061183128C1E6E2B1A08F000682B080080
:0E06DE00831203134D088A004C0882000800A6
:1006EC00831203132E080319862B8C12CE0151088A
:1006FC002C3A031D852B5130EC009622862B6F2251
:02070C000800E3
:10070E00831203131A08F100981C8F2B1812181657
:06071E007108F000080064
:10072400831203134E08003A031DA32B6B08403AAF
:100734000319A12B6B082C3A0319A12BA32B01300D
:10074400AD0003304E02031CB32B6B082A3A031985
:10075400B02B6B082B3A0319B02BB32B0130AE002E
:04076400AD010800DB
:100768001430831203134E020318C52B2D08013AC7
:10077800031DC52B8C124E08513E84006B08800067
:04078800CE0A08008D
:10078C006F238A110A128000840ACC0A0319CD0A3D
:08079C00F003031DC62B080049
:1007A400193083160313990018155F2307309F002F
:1007B40002308316860085018312850186018B171A
:1007C4000B1783168C1683120C108F018E01901058
:0E07D4001016901683160C14831210140800D1
:0E07E2000030831203138C1A0130F00008005F
:0607F0002624D223FA2B9F
:10084C0024308400263083120313F0000030CC00D7
:08085C000430CD00C6230800A2
:0C08000090340034233498340034223447
:02080C000034B6
:02080E000034B4
:020810000034B2
:020812000034B0
:020814000034AE
:020816000034AC
:040818000034003474
:06081C0046343F343A347B
:020822000034A0
:080824000034003400340034FC
:0A082C00743469346D34653400340F
:0E08360061346C34613472346D3461340034DA
:080844006C3475347A34003481
:02400E00392156
:020000040000FA
:10420000300030003000300030003000300030002E
:10421000300030003000300030003000300030001E
:10422000300030003000300030003000300030000E
:1042300030003000300030003000300030003000FE
:1042400030003000300030003000300030003000EE
:1042500030003000300030003000300030003000DE
:1042600030003000300030003000300030003000CE
:1042700030003000300030003000300030003000BE
:1042800030003000300030003000300030003000AE
:10429000300030003000300030003000300030009E
:1042A000300030003000300030003000300030008E
:1042B000300030003000300030003000300030007E
:1042C000300030003000300030003000300030006E
:1042D0003000FF00FF00FF00FF00FF00FF00FF00B5
:1042E000FF00FF00FF00FF00FF00FF00FF00FF00D6
:1042F000FF00FF00FF00FF00FF00FF00FF00FF00C6
:00000001FF

