:02000000FD2BD6
:10000800FF00030E8301E9000A08EA008A0170086C
:10001800A0000408A100F623700803191D288C23EA
:100028007008E6007008EB0097236608EB00B92318
:10003800FA22831203130C1C2D280C108F018E0139
:10004800A40A10142408043A031D2D28A4018030A2
:1000580086062008F000210884006A088A00690ED4
:080068008300FF0E7F0E09006A
:10007000831603132B08393C031C452830302B0210
:0E008000031C45280130F0004628F00108005E
:10008E0083120313FB01FA01F9018030F800F10C21
:10009E00F00C031C5B287408F90775080318750F1C
:1000AE00FA070318FB0A0310F01F63287408FA07F7
:1000BE0075080318750FFB07FB0CFA0CF90CF80CFE
:1000CE00031C4E287B08F3007A08F2007908F10031
:0600DE007808F0000800A4
:0E00E4008312031362088A006108820008007C
:1000F200831603132408313A031D82280130F000CD
:1001020088282408303A031D8828F001882808002E
:100112008312031323188F2806129028061608004C
:10012200831203137008F100F0010830FC0071081B
:10013200F40C0318A028FC0B9928F10100340310D9
:10014200A528F40C0318F107F10CF00CFC0BA22803
:020152000800A3
:10015400831603139C1CB0280000AA2824089B00C3
:1001640025089A009C131C150B08F0008B135530BE
:100174009D00AA309D009C14F01BC2288B13C32839
:060184008B171C1108009E
:10018A00831603132408F2002608F0002708F1005A
:10019A000130A602031CA703700871040319DB28A7
:1001AA007208840025088000F20AC9282408F00091
:0201BA0008003B
:1001BC008316031324089B009C131C141A08F000CC
:0201CC00080029
:1001CE00831203132218ED288612EE2886160800D5
:1001DE0083160313240884000008A500A60100302E
:1001EE00A60000302606031DFE2820302506031922
:1001FE00092900302606031D062909302506031994
:10020E0009290B29A40AEF28A701A801A901AA010F
:10021E0000302606031D15292D302506031D1C2929
:10022E00A90A0319AA0AA40A252900302606031DC5
:10023E0022292B302506031D2529A40A2408840013
:10024E000008A500A6010030A6002508AB00382046
:10025E00700803194E292708F0002808F1000A300B
:10026E00F4000030F5004720303083162502F200EE
:10027E000030031C013E2602F30072087007A7002F
:10028E0071080318013E7307A800A40A252929083E
:10029E002A0403195B292708003CF0002808031CD8
:1002AE00013EF101F1025F292708F0002808F10054
:0202BE00080036
:0E02C0008312031362088A006108820008009E
:1002CE0083120313AE0103302E020318DD29A90198
:1002DE006E0829020318DB292E082B3E8400000825
:1002EE00F0002908700784000008F2002908013E7A
:1002FE00F000F1010318F10A70086F07840072080C
:10030E000006031DD929AA0A2A086E06031DD9293B
:10031E00AA0102306E07F000F1010318F10A70080D
:10032E006F0784000008F0007008E500700883165F
:10033E00A400792070088312E5002E088316A4000D
:10034E007008A500AA200330F00083122E08F400D6
:10035E0091207008303E84000008F000840A0008E6
:10036E00F100840A0008F200840A00087208840072
:10037E0065088000840A7008E1007108E2007220AE
:10038E008A110A124C3083160313A4003030A500D4
:10039E001430A6000030A700C5208312A50101303D
:1003AE00F000DE29A90A6F29AE0A6A29F0010800B9
:1003BE0083120313EF018316A001A10183126E08AD
:1003CE00840000082C3A031DB22A0130EF000630DB
:1003DE006F020318B12A6F086E0784000008831697
:1003EE00AB003820700803190F2A023020020318C0
:1003FE000F2A2008633EF10083126F086E078400F7
:10040E000008F00071088400700880008316A00AAE
:10041E002008023A031D282A2108363EA200633026
:10042E00A400EF2022088400700880006730A4002A
:10043E003030A5000230A6000030A700C520A10A6A
:10044E00A0012108023A031D6B2A83122F08003ADD
:10045E00031D6B2A8316A1018312EF0102306F0276
:10046E0003186B2A6F08363E840000088316A2001C
:10047E0083126F080A3E8316A400DE20220870063F
:10048E00031D532AA10A4130FC00EE30FD00FD0B86
:10049E004E2AFC0B4E2A00002108023A031D682A40
:1004AE00A10183128616A5010130AF004C308316D0
:1004BE00A4003030A5001430A6000030A700C520DF
:1004CE006B2A8312EF0A352A83162108023A031D7E
:1004DE00AE2A83122F08013A031DAE2A8316A101FC
:1004EE008312EF0102306F020318AE2A6F08363EF8
:1004FE00840000088316A20083126F080C3E831638
:10050E00A400DE2022087006031D972AA10A41309E
:10051E00FC00EE30FD00FD0B922AFC0B922A00002F
:10052E002108023A031DAB2AA10183128612A501EE
:10053E00AF014C308316A4003030A5001430A60055
:10054E000030A700C520AE2A8312EF0A792A831243
:0C055E00EF0AEE29B42AF001B42A0800CC
:10056A00831603132008F2002208F0002308F10082
:10057A000130A202031CA303700871040319D02AD4
:10058A007208840000082106031DCE2A7208F000B2
:0A059A00D12AF20AB92AF001080084
:1005A40083160313A0012008013EF000F101031893
:1005B400F10A700883126E07840000086F0603199D
:1005C400E62A8316A00AD52A83162008F00008001C
:1005D400831603139816903083129800831686149A
:1005E400061183128C1EF92A1A08F000F32A080057
:1005F40083120313EC010A30ED00250803198B2B39
:100604008C12CB014C082C3A031D0C2B4C30EE0001
:10061400DF218B2B4C3083160313A0002030A10064
:100624001430A2000030A300B52270088312CA005F
:100634007008003A03197E2B0130EB000C306B027A
:100644000318712B6B084A07840000088316AB005B
:10065400382070080319402B023083126C020318EF
:10066400402B6C08673EF1006B084A0784000008C1
:10067400F0007108840070088000EC0A83126C0892
:10068400023A031D692B67308316A400EF2070081B
:100694008312A7007108A8006D088316A4007008CF
:1006A400A500AA204130FC00EE30FD00FD0B582BC4
:1006B400FC0B582B00006730A4003030A50002303A
:1006C400A6000030A700C5208312ED0AEC016D08D6
:1006D4000E3A031D6F2B0A30ED00EB0A202B4C3031
:1006E4008316A4003030A5001430A6000030A70003
:1006F400C5208312A5018B2B4C30EE005F30EF0038
:10070400D22270088312E0007008EE004C30EF0033
:040714006721080051
:10071800831203131A08F100981C942B1812181648
:060728007108F00008005A
:10072E00831203134B08003A031DA82B6B08403AA3
:10073E000319A62B6B082C3A0319A62BA82B0130F4
:10074E00A60003304B02031CB82B6B082A3A031980
:10075E00B52B6B082B3A0319B52BB82B0130A5001E
:04076E00A6010800D8
:100772001430831203134B020318CA2B2608013AC2
:10078200031DCA2B8C124B084C3E84006B08800060
:04079200CB0A080086
:1007960060218A110A128000840AE10A0319E20A1A
:0807A600F003031DCB2B08003A
:1007AE0019308316031399001815EA2207309F009B
:1007BE0002308316860085018312850186018B1710
:1007CE000B1783168C1683120C108F018E0190104E
:0E07DE001016901683160C14831210140800C7
:0E07EC000030831203138C1A0130F000080055
:0607FA002C24D723FF2B85
:1008580024308400263083120313F0000530E100B1
:080868000430E200CB2308007C
:02080A000034B8
:02080C000034B6
:02080E000034B4
:04081000003400347C
:020814000034AE
:020816000034AC
:060818003A3443343E3483
:02081E000034A4
:020820000034A2
:0C082200E73400342234893400342334DD
:08082E000034003400340034F2
:080836006C3475347A3400348F
:0A083E00743469346D3465340034FD
:0E08480061346C34613472346D3461340034C8
:02400E00392156
:020000040000FA
:10420000300030003000300030003000300030002E
:10421000300030003000300030003000300030001E
:10422000300030003000300030003000300030000E
:1042300030003000300030003000300030003000FE
:1042400030003000300030003000300030003000EE
:1042500030003000300030003000300030003000DE
:1042600030003000300030003000300030003000CE
:1042700030003000300030003000300030003000BE
:1042800030003000300030003000300030003000AE
:10429000300030003000300030003000300030009E
:1042A000300030003000300030003000300030008E
:1042B000300030003000300030003000300030007E
:1042C000300030003000300030003000300030006E
:1042D0003000FF00FF00FF00FF00FF00FF00FF00B5
:1042E000FF00FF00FF00FF00FF00FF00FF00FF00D6
:1042F000FF00FF00FF00FF00FF00FF00FF00FF00C6
:00000001FF

