:02000000F829DD
:10000800FF00030E8301CD000A08CE008A017008A4
:10001800A0000408A1006D217008C0007008D0007D
:1000280078214008D0009321A5212008F00021085C
:1000380084004E088A004D0E8300FF0E7F0E0900D3
:10004800831203135508F2005708F0005808F1000E
:100058000130D702031CD8037008710403193A2829
:100068007208840056088000F20A28285508F00013
:0200780008007E
:0E007A00831203133D088A003C088200080030
:10008800831203137008F100F0010830FC007108B6
:10009800F40C03185328FC0B4C28F101003403100E
:1000A8005828F40C0318F107F10CF00CFC0B552838
:0200B80008003E
:1000BA00831603139C1C632800005D2883125508CD
:1000CA0083169B008312560883169A009C131C15EC
:1000DA000B08F0008B1355309D00AA309D009C142C
:0E00EA00F01B79288B137A288B171C11080045
:1000F800831203135508313A031D85280130F00097
:100108008B285508303A031D8B28F0018B280800EE
:100118008312031323189228061293280616080040
:100128008312031322189A2886129B288616080021
:10013800831203134F0883169B009C131C141A0880
:04014800F0000800BB
:10014C008316031398169030831298008316861426
:10015C00061183128C1EB5281A08F000AF2808006F
:0E016C00831203133D088A003C08820008003D
:10017A00831603139818C3280000BD288312510858
:04018A0099000800D0
:10018E00831203135108F2005308F0005408F100D3
:10019E000130D302031CD403700871040319E22842
:1001AE007208840000085206031DE0287208F00051
:0A01BE00E328F20ACB28F001080044
:1001C80083120313D3015308013EF000F101031811
:1001D800F10A700851078400000852060319F6282E
:0A01E800D30AE7285308F0000800CE
:1001F20083120313A7010230270203186B29A501FA
:1002020051082502031869292708283E840000089E
:10021200F0002508700784000008F2002508013E5E
:10022200F000F1010318F10A700852078400720805
:100232000006031D6729A60A26085106031D672921
:10024200A60102305107F000F1010318F10A70080B
:10025200520784000008F0007008C1007008D50041
:100262007C207008C1002708D5007008D6005D20E8
:100272000330F00083122708F400442070082B3E5C
:1002820084000008F000840A0008F100840A0008D3
:10029200F200840A00087208840041088000840A7F
:1002A2007008BC007108BD003D208A110A1243305B
:1002B20083120313D5003030D6000A30D700003045
:1002C200D8002420AA010130F0006C29A50A0129D6
:0802D200A70AFC28F001080056
:1002DA00831203131A08F100981C752918121816AC
:0602EA007108F00008009D
:1002F000831203134208003A031D87295008403A2D
:10030000031D87290130A4005008D100BD2003300F
:100310004202031C922950082A3A031D92290130F7
:06032000AA00A401080080
:100326000A308312031342020318A4292408013A4F
:10033600031DA4298C124208433E84005008800005
:04034600C20A0800DF
:10034A00831203132A080319C3298C12C2014330EA
:10035A00D1004030D2000A30D3000030D400C72088
:10036A007008BE007008D1005F30D200E420700827
:0E037A00BF007008D1003E08D200F920080034
:1003880019308316031399001815A62007309F000B
:1003980002308316860085018312850186018B173A
:1003A8000B1783168C168312CF019C207018DF2937
:1003B80083128612E129831286160130CF009C2011
:1003C8007018E92983120612EB2983120616080011
:1003D800B6208A110A128000840ABC0A0319BD0AD1
:0803E800F003031DEC290800DD
:1003F00083120313A401A501A601A7013830A800A8
:100400003130A900AA019430AB000030AC0022309A
:10041000AD008C30AE000030AF002330B000613052
:10042000B1006C30B2006130B3007230B4006D3096
:10043000B5006130B600B7016C30B8007530B90056
:0A0440007A30BA00BB01C421242A5F
:02400E00392156
:020000040000FA
:10420000300030003000300030003000300030002E
:10421000300030003000300030003000300030001E
:10422000300030003000300030003000300030000E
:1042300030003000300030003000300030003000FE
:1042400030003000300030003000300030003000EE
:1042500030003000300030003000300030003000DE
:1042600030003000300030003000300030003000CE
:1042700030003000300030003000300030003000BE
:1042800030003000300030003000300030003000AE
:10429000300030003000300030003000300030009E
:1042A000300030003000300030003000300030008E
:1042B000300030003000300030003000300030007E
:1042C000300030003000300030003000300030006E
:1042D0003000FF00FF00FF00FF00FF00FF00FF00B5
:1042E000FF00FF00FF00FF00FF00FF00FF00FF00D6
:1042F000FF00FF00FF00FF00FF00FF00FF00FF00C6
:00000001FF

