:020000000B2CC7
:10000800FF00030E83018316A0000A088312EF0085
:100018008A017008A0000408A100D0237008031901
:100028002328B9237008D10070088316A1009123F2
:100038008312031351088316A1006623D7230C1CCF
:1000480035280C108F018E01A40A10142408033AD5
:10005800031D3528A4014030860625308316A100EB
:100068007A2383122008F000210884006F088A0090
:0C0078008316200E8300FF0E7F0E09008F
:1000840083120313FB01FA01F9018030F800F10C2B
:10009400F00C031C56287408F90775080318750F2B
:1000A400FA070318FB0A0310F01F5E287408FA0706
:1000B40075080318750FFB07FB0CFA0CF90CF80C08
:1000C400031C49287B08F3007A08F2007908F10040
:0600D4007808F0000800AE
:1000DA00831603133A08393C031C7A2830303A0253
:0E00EA00031C7A280130F0007B28F00108008A
:1000F800831203137008F100F0010830FC00710846
:10010800F40C03188B28FC0B8428F101003403102D
:100118009028F40C0318F107F10CF00CFC0B8D2857
:020128000800CD
:10012A00831603133308313A031D9E280130F00069
:10013A00A4283308303A031DA428F001A428080093
:10014A00831203132318AB280612AC2806160800DC
:0E015A008312031355088A005408820008001F
:10016800831203132218BA288612BB2886160800A1
:10017800831603133308F2003508F0003608F1003F
:100188000130B502031CB603700871040319D228A4
:100198007208840034088000F20AC0283308F0008E
:0201A80008004D
:1001AA00831603139C1CDB280000D52833089B0008
:1001BA0034089A009C131C150B08F0008B13553059
:1001CA009D00AA309D009C14F01BED288B13EE288D
:0601DA008B171C11080048
:1001E0008316031333089B009C131C141A08F00099
:0201F000080005
:1001F20083160313330884000008B400B5010030ED
:10020200B50000303506031D0829203034060319D5
:10021200132900303506031D10290930340603194D
:1002220013291529B30AF928B601B701B801B90192
:1002320000303506031D1F292D303406031D2629E3
:10024200B80A0319B90AB30A2F2900303506031D6B
:100252002C292B303406031D2F29B30A33088400BE
:100262000008B400B5010030B5003408BA006D20B2
:100272007008031958293608F0003708F1000A30CF
:10028200F4000030F5004220303083163402F200D0
:100292000030031C013E3502F30072087007B600FD
:1002A20071080318013E7307B700B30A2F293808F3
:1002B2003904031965293608003CF0003708031C8D
:1002C200013EF101F10269293608F0003708F10018
:0202D200080022
:1002D40083120313C101033041020318E929BA014F
:1002E40083162F0883123A020318E72941083B3E7C
:1002F40084000008F0003A08700784000008F20047
:100304003A08013EF000F1010318F10A700883165F
:100314003007840072080006031DE4298312C00A12
:10032400400883162F06031DE4298312C0010230FE
:1003340083162F07F000F1010318F10A7008300743
:1003440084000008F00070088312D200700883163D
:10035400B300952070088312D20041088316B300BD
:100364007008B400D5200330F00083124108F40073
:100374007C207008303E84000008F000840A0008E5
:10038400F100840A0008F200840A0008720884005C
:1003940052088000840A7008D4007108D500AD208A
:1003A4008A110A12593083160313B3003030B40093
:1003B4001530B5000030B600BC208312B9010130FD
:1003C400F000EA298312BA0A7229C10A6D29F001E0
:0203D40008001F
:1003D600831603132F08F2003108F0003208F100EB
:1003E6000130B102031CB203700871040319062A16
:1003F6007208840000083006031D042A7208F00003
:0A040600072AF20AEF29F0010800AE
:1004100083160313B1013108013EF000F101031806
:10042000F10A70082F0784000008300603191A2A01
:0A043000B10A0B2A3108F0000800A1
:10043A0083160313B0018312C1010230410203186B
:10044A00552A41083E3E84000008F00070088400E6
:10045A0000088316B100840A0008B200831241081A
:10046A0083162F07B300F02000303206031D3F2AFF
:10047A0070083106031D4B2A4130FC00EE30FD00A6
:10048A00FD0B452AFC0B452A0000B00A3008023A47
:10049A00031D522A0130F000562A8312C10A222A69
:0404AA00F001080055
:1004AE0083160313B101B2010130B0000D303002DA
:1004BE000318A82A30082F0784000008BA006D2000
:1004CE00700803197B2A0230310203187B2A310887
:1004DE00563EF10030082F0784000008F000710826
:1004EE00840070088000B10A3108023A031DA02A68
:1004FE005630B300F92070088312B7007108B800A7
:10050E0083163208B3007008B400D5202730FC00E3
:10051E00F530FD00FD0B912AFC0B912A5630B300ED
:10052E003030B4000230B5000030B600BC20B20A44
:10053E00B1013208043A031DA62A0A30B200B00AED
:10054E005D2A5930B3003030B4001530B50000309C
:0A055E00B600BC208312B9010800AA
:10056800593083160313AF003A30B0001530B1008C
:100578000030B200EB2170088312D8007008003AEE
:100588000319CB2A58088316AF005722DA2A5930A4
:100598008316AF005F30B000082270088312EE00A7
:0E05A80070088316AF005930B0006A210800B9
:1005B600831603139818E12A0000DB2A2408831205
:0405C6009900080090
:1005CA00783083160313A8007830A9007830AA007F
:1005DA007830AB00AC01AD01AE010130AD000630A0
:1005EA002D020318102B2D08240784000008BA00D6
:1005FA006D20700803190E2B2E08A83EF1002D0855
:10060A00240784000008F000710884007008800044
:10061A00AE0AAD0AF42A2808A5002908A600AA30BD
:10062A00B300F92070088312C6007108C700A5300C
:10063A008316B300F92070088312C8007108C90034
:10064A008316AF011D22831203137008013A031D9A
:10065A00392B861659308316B3003030B400153062
:10066A00B5000030B600BC2083160230AF001D2250
:10067A00831203137008013A031D4E2B8612593058
:10068A008316B3003030B4001530B5000030B60020
:04069A00BC20080078
:10069E0083160313981690308312980083168614CF
:1006AE00061183128C1E5E2B1A08F000582B0800C0
:0E06BE008312031355088A00540882000800B6
:1006CC0015308312031353020318792B3608013AA1
:1006DC00031D792B8C125308593E84008316210874
:0806EC0080008312D30A08000C
:1006F40083160313A301210884000008A200220822
:10070400003A0319902B2208A400DB228316A30AC3
:0E0714002308210784000008A200812B0800A2
:10072200831203135308003A031DA52B83162108D5
:10073200403A0319A12B21082C3A0319A12BA52B0E
:1007420001308312B600B901831203305302031C35
:10075200B82B831621082A3A0319B42B21082D3A03
:100762000319B42BB82B01308312B900B60108006B
:10077200831203131A08F100981CC12B18121816C1
:060782007108F000080000
:100788005F238A110A128000840AD40A0319D50A41
:08079800F003031DC42B08004F
:0E07A0000030831203138C1A0130F0000800A1
:1007AE008312031339080319EB2B8C12D30159084A
:1007BE002C3A031DEA2B59308316A400E52283122E
:0A07CE000313B901EB2BB42208005D
:1007D800193083160313990018154F2307309F000B
:1007E80002308316860085018312850186018B17E6
:1007F8000B1783168C1683120C108F018E01901024
:0E0808001016901683160C148312101408009C
:060816004024EC230D2C30
:10088000243084002D3083120313F0001330D40081
:080890000430D500C423080068
:0208260000349C
:10082800413454342B34433443344C344B343F3404
:060838000D340A34003407
:0C083E00B43400342234A53400342334D8
:02084A00003478
:04084C000034003440
:02085000003472
:02085200003470
:0608540042344A34003476
:04085A0048344634A4
:02085E00003464
:02086000003462
:080862006C3475347A34003463
:04086A000A34003418
:04086E000934003415
:0E08720061346C34613472346D34613400349E
:02400E00392156
:020000040000FA
:10420000300030003000300030003000300030002E
:10421000300030003000300030003000300030001E
:10422000300030003000300030003000300030000E
:1042300030003000300030003000300030003000FE
:1042400030003000300030003000300030003000EE
:1042500030003000300030003000300030003000DE
:1042600030003000300030003000300030003000CE
:1042700030003000300030003000300030003000BE
:1042800030003000300030003000300030003000AE
:10429000300030003000300030003000300030009E
:1042A000300030003000300030003000300030008E
:1042B000300030003000300030003000300030007E
:1042C000300030003000300030003000300030006E
:1042D0003000FF00FF00FF00FF00FF00FF00FF00B5
:1042E000FF00FF00FF00FF00FF00FF00FF00FF00D6
:1042F000FF00FF00FF00FF00FF00FF00FF00FF00C6
:00000001FF

