:02000000F528E1
:10000800FF00030E8301BC000A08BD008A017008C6
:10001800A0000408A1009E207008A3007008403AC0
:10002800031D18280130A20014303A0203182828AA
:100038002208013A031D282886168C123A08263E03
:10004800840023088000BA0A14303A02031C51289D
:1000580086128C12BA012630BE004030BF00143020
:10006800C0000030C100A9207008BB008230FC002D
:10007800DD30FD00FD0B3E28FC0B3E280000000093
:100088003B08BE00C6202630BE007830BF001430C2
:10009800C0000030C100DC20A2012008F0002108C7
:1000A80084003D088A003C0E8300FF0E7F0E090085
:1000B800831603139818622800005C2883124208EC
:0400C8009900080093
:1000CC0083160313981690308312980083168614A7
:1000DC00061183128C1E75281A08F0006F28080070
:0E00EC008312031325088A00240882000800EE
:1000FA000730831203139F0002308316860085019E
:10010A008312850186011930831699001815662015
:0A011A008B170B1783168C160800D4
:1001240076208A110A128000840AA40A0319A50AF7
:08013400F003031D92280800EE
:10013C00831203131A08F100981CA628181218161B
:06014C007108F00008003C
:10015200831203133E08F2004008F0004108F10048
:100162000130C002031CC103700871040319C428C2
:100172007208840000083F06031DC2287208F000BE
:0A018200C528F20AAD28F0010800BC
:10018C0083120313C0013E0884000008BF003F081F
:10019C00003A0319DB283F08C2005C20C00A400863
:0C01AC003E0784000008BF00CD280800BA
:1001B800831203133E08F2004008F0004108F100E2
:1001C8000130C002031CC103700871040319F2282E
:1001D800720884003F088000F20AE0283E08F00018
:0201E80008000D
:0A01EA0083120313A2017D20F928FF
:02400E00392156
:00000001FF
