:02000000D52900
:10000800FF00030E8301D7000A08D8008A01700890
:10001800A0000408A1007F217008BF007008D90063
:100028008A213F08D900C32156212008F000210861
:10003800840058088A00570E8300FF0E7F0E0900BF
:100048008316031398182A280000242883125E08B0
:040058009900080003
:10005C00831203135E08F2006008F0006108F100DF
:10006C000130E002031CE1037008710403194428F9
:10007C00720884005F088000F20A32285E08F000E3
:02008C0008006A
:0E008E00831203133E088A003D08820008001A
:10009C008312031323185428061255280616080039
:1000AC00831203135E08313A031D5F280130F00000
:1000BC0065285E08303A031D6528F00165280800A4
:1000CC00831203137008F100F0010830FC00710872
:1000DC00F40C03187528FC0B6E28F1010034031086
:1000EC007A28F40C0318F107F10CF00CFC0B7728B0
:0200FC000800FA
:1000FE008312031322188528861286288616080076
:0E010E00831203133E088A003D088200080099
:10011C008316031398169030831298008316861456
:10012C00061183128C1E9D281A08F00097280800CF
:10013C00831203135A08F2005C08F0005D08F1000A
:10014C000130DC02031CDD03700871040319B928AB
:10015C007208840000085B06031DB7287208F000C3
:0A016C00BA28F20AA228F0010800E8
:1001760083120313DC015C08013EF000F101031851
:10018600F10A70085A07840000085B060319CD2897
:0A019600DC0ABE285C08F000080037
:1001A00083120313A7010230270203183E29A50179
:1001B0005A08250203183C292708283E8400000815
:1001C000F0002508700784000008F2002508013EB1
:1001D000F000F1010318F10A70085B07840072084F
:1001E0000006031D3A29A60A26085A06031D3A29C5
:1001F000A60102305A07F000F1010318F10A700855
:100200005B0784000008F0007008C1007008DE0081
:1002100056207008DC005C08C1000330F00027089D
:10022000F400662070082B3E84000008F000840A69
:100230000008F100840A0008F200840A000872082D
:1002400084005C088000840A7008BD007108BE004C
:1002500047208A110A12433083120313DE00303024
:10026000DF001430E0000030E1002E20AA01013050
:10027000F0003F29A50AD828A70AD328F0010800D2
:1002800083120313DC015A0884000008DB005B08BA
:10029000003A031955295B08DE002420DC0A5C08BB
:0C02A0005A0784000008DB004729080012
:1002AC00831203132A0803197E298C12C2014330CE
:1002BC00DA004030DB001430DC000030DD009E2022
:1002CC007008BC007008DA005F30DB00BB207008DF
:1002DC00C0007008DA003C08DB00D0207008013A3E
:1002EC00031D7C294330DA0040217E29F0017E2950
:0202FC000800F8
:1002FE00831203131A08F100981C87291812181676
:06030E007108F000080078
:10031400831203134208003A031D96295908403AF0
:10032400031D96290130A40003304202031CA129B5
:1003340059082A3A031DA1290130AA00A401080082
:1003440087208A110A128000840ABD0A0319BE0A92
:08035400F003031DA2290800BB
:10035C000730831203139F00023083168600850139
:10036C0083128501860119308316990018158E2089
:0A037C008B170B1783168C16080070
:1003860014308312031342020318D4292408013AB5
:10039600031DD4298C124208433E8400590880006C
:0403A600C20A08007F
:1003AA0083120313A401A501A601A7013130A800F5
:1003BA003530A900AA017F30AB000030AC002230F2
:1003CA00AD004E30AE000030AF002330B0006C30CC
:1003DA00B1007530B2007A30B300B4016130B500B3
:1003EA006C30B6006130B7007230B8006D30B900B9
:0A03FA006130BA00BB01AE21012AF8
:02400E00392156
:020000040000FA
:10420000300030003000300030003000300030002E
:10421000300030003000300030003000300030001E
:10422000300030003000300030003000300030000E
:1042300030003000300030003000300030003000FE
:1042400030003000300030003000300030003000EE
:1042500030003000300030003000300030003000DE
:1042600030003000300030003000300030003000CE
:1042700030003000300030003000300030003000BE
:1042800030003000300030003000300030003000AE
:10429000300030003000300030003000300030009E
:1042A000300030003000300030003000300030008E
:1042B000300030003000300030003000300030007E
:1042C000300030003000300030003000300030006E
:1042D0003000FF00FF00FF00FF00FF00FF00FF00B5
:1042E000FF00FF00FF00FF00FF00FF00FF00FF00D6
:1042F000FF00FF00FF00FF00FF00FF00FF00FF00C6
:00000001FF

