:02000000E629EF
:10000800FF00030E8301DA000A08D9008A0170088C
:10001800A0000408A10090217008BC007008DB0053
:100028009B213C08DB00D42167212008F00021082F
:10003800840059088A005A0E8300FF0E7F0E0900BB
:100048008316031398182A280000242883126008AE
:040058009900080003
:10005C00831203136008F2006208F0006308F100D9
:10006C000130E202031CE3037008710403194428F5
:10007C007208840061088000F20A32286008F000DF
:02008C0008006A
:0E008E008312031340088A003F088200080016
:10009C008312031323185428061255280616080039
:1000AC00831203136008313A031D5F280130F000FE
:1000BC0065286008303A031D6528F00165280800A2
:1000CC00831203137008F100F0010830FC00710872
:1000DC00F40C03187528FC0B6E28F1010034031086
:1000EC007A28F40C0318F107F10CF00CFC0B7728B0
:0200FC000800FA
:1000FE008312031322188528861286288616080076
:0E010E008312031340088A003F088200080095
:10011C008316031398169030831298008316861456
:10012C00061183128C1E9D281A08F00097280800CF
:10013C00831203135C08F2005E08F0005F08F10004
:10014C000130DE02031CDF03700871040319B928A7
:10015C007208840000085D06031DB7287208F000C1
:0A016C00BA28F20AA228F0010800E8
:1001760083120313DE015E08013EF000F10103184D
:10018600F10A70085C07840000085D060319CD2893
:0A019600DE0ABE285E08F000080033
:1001A00083120313A9010230290203184F29A60163
:1001B0005C08260203184D292908273EF200720820
:1001C00084000008F0002608700784000008C200C0
:1001D0002608013EF000F1010318F10A70085D07DE
:1001E000F300730884000008C3007208840000084C
:1001F000F0002608700784000008F10073088400EE
:1002000071080006031D4B29B00A30085C06031D67
:100210004B29B00102305C07F000F1010318F10A2C
:1002200070085D0784000008F0007008D8007008AE
:10023000E00056207008DE005E08D8000330F000B1
:100240002908F400662070082A3E84000008F000A7
:10025000840A0008F100840A0008F200840A0008F9
:10026000720884005E088000840A7008BF0071086C
:10027000C00047208A110A12443083120313E000A1
:100280003030E1001430E2000030E3002E20A50100
:100290000130F0005029A60AD828A90AD328F00175
:0202A000080054
:1002A20083120313DE015C0884000008DD005D0890
:1002B200003A031966295D08E0002420DE0A5E0880
:0C02C2005C0784000008DD0058290800DB
:1002CE0083120313250803198F298C12BE014430A3
:1002DE00DC004030DD001430DE000030DF009E20F8
:1002EE007008BD007008DC005F30DD00BB207008B8
:1002FE00C1007008DC003D08DD00D0207008013A16
:10030E00031D8D294430DC0051218F29F0018F29E6
:02031E000800D5
:10032000831203131A08F100981C98291812181642
:060330007108F000080056
:10033600831203133E08003A031DA7295B08403ABF
:10034600031DA7290130A40003303E02031CB22975
:100356005B082A3A031DB2290130A500A401080052
:1003660087208A110A128000840ABF0A0319C00A6C
:08037600F003031DB329080088
:10037E000730831203139F00023083168600850117
:10038E0083128501860119308316990018158E2067
:0A039E008B170B1783168C1608004E
:1003A8001430831203133E020318E5292408013A86
:1003B800031DE5298C123E08443E84005B0880003A
:0403C800BE0A080061
:1003CC0083120313A401A501A6013130A700353017
:1003DC00A800A9017F30AA000030AB002230AC008D
:1003EC004E30AD000030AE002330AF00B0016C30A9
:1003FC00B1007530B2007A30B300B4016130B50091
:10040C006C30B6006130B7007230B8006D30B90096
:0A041C006130BA00BB01BF21122AB3
:02400E00392156
:020000040000FA
:10420000300030003000300030003000300030002E
:10421000300030003000300030003000300030001E
:10422000300030003000300030003000300030000E
:1042300030003000300030003000300030003000FE
:1042400030003000300030003000300030003000EE
:1042500030003000300030003000300030003000DE
:1042600030003000300030003000300030003000CE
:1042700030003000300030003000300030003000BE
:1042800030003000300030003000300030003000AE
:10429000300030003000300030003000300030009E
:1042A000300030003000300030003000300030008E
:1042B000300030003000300030003000300030007E
:1042C000300030003000300030003000300030006E
:1042D0003000FF00FF00FF00FF00FF00FF00FF00B5
:1042E000FF00FF00FF00FF00FF00FF00FF00FF00D6
:1042F000FF00FF00FF00FF00FF00FF00FF00FF00C6
:00000001FF

